{
  "contractName": "Wallet",
  "abi": [
    {
      "anonymous": false,
      "inputs": [
        {
          "indexed": true,
          "internalType": "address",
          "name": "previousOwner",
          "type": "address"
        },
        {
          "indexed": true,
          "internalType": "address",
          "name": "newOwner",
          "type": "address"
        }
      ],
      "name": "OwnershipTransferred",
      "type": "event"
    },
    {
      "inputs": [
        {
          "internalType": "uint256",
          "name": "",
          "type": "uint256"
        }
      ],
      "name": "TokenList",
      "outputs": [
        {
          "internalType": "bytes32",
          "name": "",
          "type": "bytes32"
        }
      ],
      "stateMutability": "view",
      "type": "function",
      "constant": true
    },
    {
      "inputs": [
        {
          "internalType": "address",
          "name": "",
          "type": "address"
        },
        {
          "internalType": "bytes32",
          "name": "",
          "type": "bytes32"
        }
      ],
      "name": "balances",
      "outputs": [
        {
          "internalType": "uint256",
          "name": "",
          "type": "uint256"
        }
      ],
      "stateMutability": "view",
      "type": "function",
      "constant": true
    },
    {
      "inputs": [],
      "name": "owner",
      "outputs": [
        {
          "internalType": "address",
          "name": "",
          "type": "address"
        }
      ],
      "stateMutability": "view",
      "type": "function",
      "constant": true
    },
    {
      "inputs": [],
      "name": "renounceOwnership",
      "outputs": [],
      "stateMutability": "nonpayable",
      "type": "function"
    },
    {
      "inputs": [
        {
          "internalType": "bytes32",
          "name": "",
          "type": "bytes32"
        }
      ],
      "name": "tokenMapping",
      "outputs": [
        {
          "internalType": "bytes32",
          "name": "ticker",
          "type": "bytes32"
        },
        {
          "internalType": "address",
          "name": "tokenAddress",
          "type": "address"
        }
      ],
      "stateMutability": "view",
      "type": "function",
      "constant": true
    },
    {
      "inputs": [
        {
          "internalType": "address",
          "name": "newOwner",
          "type": "address"
        }
      ],
      "name": "transferOwnership",
      "outputs": [],
      "stateMutability": "nonpayable",
      "type": "function"
    },
    {
      "inputs": [
        {
          "internalType": "bytes32",
          "name": "ticker",
          "type": "bytes32"
        },
        {
          "internalType": "address",
          "name": "tokenAddress",
          "type": "address"
        }
      ],
      "name": "addToken",
      "outputs": [],
      "stateMutability": "nonpayable",
      "type": "function"
    },
    {
      "inputs": [
        {
          "internalType": "uint256",
          "name": "amount",
          "type": "uint256"
        },
        {
          "internalType": "bytes32",
          "name": "ticker",
          "type": "bytes32"
        }
      ],
      "name": "deposit",
      "outputs": [],
      "stateMutability": "nonpayable",
      "type": "function"
    },
    {
      "inputs": [
        {
          "internalType": "uint256",
          "name": "amount",
          "type": "uint256"
        },
        {
          "internalType": "bytes32",
          "name": "ticker",
          "type": "bytes32"
        }
      ],
      "name": "withdraw",
      "outputs": [],
      "stateMutability": "nonpayable",
      "type": "function"
    }
  ],
  "bytecode": "0x608060405234801561001057600080fd5b5061002d61002261003260201b60201c565b61003a60201b60201c565b6100fe565b600033905090565b60008060009054906101000a900473ffffffffffffffffffffffffffffffffffffffff169050816000806101000a81548173ffffffffffffffffffffffffffffffffffffffff021916908373ffffffffffffffffffffffffffffffffffffffff1602179055508173ffffffffffffffffffffffffffffffffffffffff168173ffffffffffffffffffffffffffffffffffffffff167f8be0079c531659141344cd1fd0a4f28419497f9722a3daafe3b4186f6b6457e060405160405180910390a35050565b610f308061010d6000396000f3fe608060405234801561001057600080fd5b50600436106100935760003560e01c80638da5cb5b116100665780638da5cb5b146101335780639776aacf14610151578063a8d2021a1461016d578063c9630cb014610189578063f2fde38b146101a557610093565b806303a53595146100985780631f14df69146100c8578063667cb4ba146100f8578063715018a614610129575b600080fd5b6100b260048036038101906100ad9190610ad0565b6101c1565b6040516100bf9190610cc3565b60405180910390f35b6100e260048036038101906100dd9190610a06565b6101e5565b6040516100ef9190610d67565b60405180910390f35b610112600480360381019061010d9190610a6b565b61020a565b604051610120929190610cde565b60405180910390f35b61013161024e565b005b61013b610262565b6040516101489190610c48565b60405180910390f35b61016b60048036038101906101669190610a94565b61028b565b005b61018760048036038101906101829190610af9565b610352565b005b6101a3600480360381019061019e9190610af9565b6105cf565b005b6101bf60048036038101906101ba91906109dd565b6107bb565b005b600281815481106101d157600080fd5b906000526020600020016000915090505481565b6003602052816000526040600020602052806000526040600020600091509150505481565b60016020528060005260406000206000915090508060000154908060010160009054906101000a900473ffffffffffffffffffffffffffffffffffffffff16905082565b61025661083f565b61026060006108bd565b565b60008060009054906101000a900473ffffffffffffffffffffffffffffffffffffffff16905090565b61029361083f565b60405180604001604052808381526020018273ffffffffffffffffffffffffffffffffffffffff16815250600160008481526020019081526020016000206000820151816000015560208201518160010160006101000a81548173ffffffffffffffffffffffffffffffffffffffff021916908373ffffffffffffffffffffffffffffffffffffffff16021790555090505060028290806001815401808255809150506001900390600052602060002001600090919091909150555050565b80600073ffffffffffffffffffffffffffffffffffffffff166001600083815260200190815260200160002060010160009054906101000a900473ffffffffffffffffffffffffffffffffffffffff1673ffffffffffffffffffffffffffffffffffffffff1614156103c357600080fd5b82600360003373ffffffffffffffffffffffffffffffffffffffff1673ffffffffffffffffffffffffffffffffffffffff1681526020019081526020016000206000848152602001908152602001600020541015610456576040517f08c379a000000000000000000000000000000000000000000000000000000000815260040161044d90610d27565b60405180910390fd5b82600360003373ffffffffffffffffffffffffffffffffffffffff1673ffffffffffffffffffffffffffffffffffffffff1681526020019081526020016000206000848152602001908152602001600020546104b29190610de9565b600360003373ffffffffffffffffffffffffffffffffffffffff1673ffffffffffffffffffffffffffffffffffffffff1681526020019081526020016000206000848152602001908152602001600020819055506001600083815260200190815260200160002060010160009054906101000a900473ffffffffffffffffffffffffffffffffffffffff1673ffffffffffffffffffffffffffffffffffffffff1663a9059cbb33856040518363ffffffff1660e01b8152600401610577929190610c9a565b602060405180830381600087803b15801561059157600080fd5b505af11580156105a5573d6000803e3d6000fd5b505050506040513d601f19601f820116820180604052508101906105c99190610a42565b50505050565b80600073ffffffffffffffffffffffffffffffffffffffff166001600083815260200190815260200160002060010160009054906101000a900473ffffffffffffffffffffffffffffffffffffffff1673ffffffffffffffffffffffffffffffffffffffff16141561064057600080fd5b6001600083815260200190815260200160002060010160009054906101000a900473ffffffffffffffffffffffffffffffffffffffff1673ffffffffffffffffffffffffffffffffffffffff166323b872dd3330866040518463ffffffff1660e01b81526004016106b393929190610c63565b602060405180830381600087803b1580156106cd57600080fd5b505af11580156106e1573d6000803e3d6000fd5b505050506040513d601f19601f820116820180604052508101906107059190610a42565b5082600360003373ffffffffffffffffffffffffffffffffffffffff1673ffffffffffffffffffffffffffffffffffffffff1681526020019081526020016000206000848152602001908152602001600020546107629190610d93565b600360003373ffffffffffffffffffffffffffffffffffffffff1673ffffffffffffffffffffffffffffffffffffffff168152602001908152602001600020600084815260200190815260200160002081905550505050565b6107c361083f565b600073ffffffffffffffffffffffffffffffffffffffff168173ffffffffffffffffffffffffffffffffffffffff161415610833576040517f08c379a000000000000000000000000000000000000000000000000000000000815260040161082a90610d07565b60405180910390fd5b61083c816108bd565b50565b610847610981565b73ffffffffffffffffffffffffffffffffffffffff16610865610262565b73ffffffffffffffffffffffffffffffffffffffff16146108bb576040517f08c379a00000000000000000000000000000000000000000000000000000000081526004016108b290610d47565b60405180910390fd5b565b60008060009054906101000a900473ffffffffffffffffffffffffffffffffffffffff169050816000806101000a81548173ffffffffffffffffffffffffffffffffffffffff021916908373ffffffffffffffffffffffffffffffffffffffff1602179055508173ffffffffffffffffffffffffffffffffffffffff168173ffffffffffffffffffffffffffffffffffffffff167f8be0079c531659141344cd1fd0a4f28419497f9722a3daafe3b4186f6b6457e060405160405180910390a35050565b600033905090565b60008135905061099881610e9e565b92915050565b6000815190506109ad81610eb5565b92915050565b6000813590506109c281610ecc565b92915050565b6000813590506109d781610ee3565b92915050565b6000602082840312156109ef57600080fd5b60006109fd84828501610989565b91505092915050565b60008060408385031215610a1957600080fd5b6000610a2785828601610989565b9250506020610a38858286016109b3565b9150509250929050565b600060208284031215610a5457600080fd5b6000610a628482850161099e565b91505092915050565b600060208284031215610a7d57600080fd5b6000610a8b848285016109b3565b91505092915050565b60008060408385031215610aa757600080fd5b6000610ab5858286016109b3565b9250506020610ac685828601610989565b9150509250929050565b600060208284031215610ae257600080fd5b6000610af0848285016109c8565b91505092915050565b60008060408385031215610b0c57600080fd5b6000610b1a858286016109c8565b9250506020610b2b858286016109b3565b9150509250929050565b610b3e81610e1d565b82525050565b610b4d81610e3b565b82525050565b6000610b60602683610d82565b91507f4f776e61626c653a206e6577206f776e657220697320746865207a65726f206160008301527f64647265737300000000000000000000000000000000000000000000000000006020830152604082019050919050565b6000610bc6601283610d82565b91507f42616c616e6365206e6f7420656e6f75676800000000000000000000000000006000830152602082019050919050565b6000610c06602083610d82565b91507f4f776e61626c653a2063616c6c6572206973206e6f7420746865206f776e65726000830152602082019050919050565b610c4281610e65565b82525050565b6000602082019050610c5d6000830184610b35565b92915050565b6000606082019050610c786000830186610b35565b610c856020830185610b35565b610c926040830184610c39565b949350505050565b6000604082019050610caf6000830185610b35565b610cbc6020830184610c39565b9392505050565b6000602082019050610cd86000830184610b44565b92915050565b6000604082019050610cf36000830185610b44565b610d006020830184610b35565b9392505050565b60006020820190508181036000830152610d2081610b53565b9050919050565b60006020820190508181036000830152610d4081610bb9565b9050919050565b60006020820190508181036000830152610d6081610bf9565b9050919050565b6000602082019050610d7c6000830184610c39565b92915050565b600082825260208201905092915050565b6000610d9e82610e65565b9150610da983610e65565b9250827fffffffffffffffffffffffffffffffffffffffffffffffffffffffffffffffff03821115610dde57610ddd610e6f565b5b828201905092915050565b6000610df482610e65565b9150610dff83610e65565b925082821015610e1257610e11610e6f565b5b828203905092915050565b6000610e2882610e45565b9050919050565b60008115159050919050565b6000819050919050565b600073ffffffffffffffffffffffffffffffffffffffff82169050919050565b6000819050919050565b7f4e487b7100000000000000000000000000000000000000000000000000000000600052601160045260246000fd5b610ea781610e1d565b8114610eb257600080fd5b50565b610ebe81610e2f565b8114610ec957600080fd5b50565b610ed581610e3b565b8114610ee057600080fd5b50565b610eec81610e65565b8114610ef757600080fd5b5056fea2646970667358221220873f892a109e0a17ba264cee160855ae62e691523943fc3ebf4bbece0aa1e4a964736f6c63430008000033",
  "immutableReferences": {},
  "source": "pragma solidity ^0.8.0;\r\n\r\nimport \"@openzeppelin/contracts/token/ERC20/IERC20.sol\";\r\nimport \"@openzeppelin/contracts/utils/math/SafeMath.sol\";\r\nimport \"@openzeppelin/contracts/access/Ownable.sol\";\r\n\r\n//using SafeMath for uint256;\r\n\r\ncontract Wallet is Ownable{\r\n\r\n    struct Token{\r\n        bytes32 ticker;\r\n        address tokenAddress;\r\n    }\r\n    \r\n    mapping( bytes32 => Token) public tokenMapping;\r\n    bytes32[] public TokenList;\r\n\r\n    mapping ( address => mapping (bytes32 => uint256 )) public balances;\r\n\r\n    modifier tokenExists(bytes32 ticker){\r\n        require(tokenMapping[ticker].tokenAddress != address(0));\r\n        _;\r\n    }\r\n\r\n    function addToken(bytes32 ticker, address tokenAddress) onlyOwner external{\r\n        tokenMapping[ticker] = Token(ticker,tokenAddress);\r\n        TokenList.push(ticker);\r\n    }\r\n    function deposit( uint amount, bytes32 ticker) tokenExists(ticker) external {\r\n        IERC20(tokenMapping[ticker].tokenAddress).transferFrom(msg.sender,address(this),amount);\r\n        balances[msg.sender][ticker]=balances[msg.sender][ticker]+(amount);\r\n\r\n    }\r\n    function withdraw( uint amount, bytes32 ticker) tokenExists(ticker) external {\r\n        require(balances[msg.sender][ticker]>= amount,\"Balance not enough\");\r\n        balances[msg.sender][ticker]=balances[msg.sender][ticker]-(amount);\r\n        IERC20(tokenMapping[ticker].tokenAddress).transfer(msg.sender,amount);\r\n    }\r\n}",
  "sourcePath": "C:\\Users\\Arsh Jindal\\OneDrive\\Desktop\\Ethereum 201\\DEX with solidity\\contracts\\wallet.sol",
  "compiler": {
    "name": "solc",
    "version": "0.8.0+commit.c7dfd78e.Emscripten.clang"
  },
  "schemaVersion": "3.4.9",
  "updatedAt": "2022-09-15T17:31:44.229Z",
  "networkType": "ethereum",
  "devdoc": {
    "kind": "dev",
    "methods": {
      "owner()": {
        "details": "Returns the address of the current owner."
      },
      "renounceOwnership()": {
        "details": "Leaves the contract without owner. It will not be possible to call `onlyOwner` functions anymore. Can only be called by the current owner. NOTE: Renouncing ownership will leave the contract without an owner, thereby removing any functionality that is only available to the owner."
      },
      "transferOwnership(address)": {
        "details": "Transfers ownership of the contract to a new account (`newOwner`). Can only be called by the current owner."
      }
    },
    "version": 1
  },
  "userdoc": {
    "kind": "user",
    "methods": {},
    "version": 1
  }
}